{
  "contractName": "First",
  "abi": [
    {
      "anonymous": false,
      "inputs": [
        {
          "indexed": false,
          "name": "newname",
          "type": "string"
        }
      ],
      "name": "nameChanged",
      "type": "event"
    },
    {
      "constant": false,
      "inputs": [
        {
          "name": "_name",
          "type": "string"
        }
      ],
      "name": "setName",
      "outputs": [],
      "payable": false,
      "stateMutability": "nonpayable",
      "type": "function"
    }
  ],
  "bytecode": "0x608060405234801561001057600080fd5b50610236806100206000396000f300608060405260043610610041576000357c0100000000000000000000000000000000000000000000000000000000900463ffffffff168063c47f002714610046575b600080fd5b34801561005257600080fd5b506100ad600480360381019080803590602001908201803590602001908080601f01602080910402602001604051908101604052809392919081815260200183838082843782019150505050505091929192905050506100af565b005b80600090805190602001906100c5929190610165565b507f02cd2d679eb19af8b66f55bbd01e7f3d0f49ba6b4a7a0f6f960634659179609d816040518080602001828103825283818151815260200191508051906020019080838360005b8381101561012857808201518184015260208101905061010d565b50505050905090810190601f1680156101555780820380516001836020036101000a031916815260200191505b509250505060405180910390a150565b828054600181600116156101000203166002900490600052602060002090601f016020900481019282601f106101a657805160ff19168380011785556101d4565b828001600101855582156101d4579182015b828111156101d35782518255916020019190600101906101b8565b5b5090506101e191906101e5565b5090565b61020791905b808211156102035760008160009055506001016101eb565b5090565b905600a165627a7a72305820d9ed0fee63d2cc78ebe43ae7b5f1f077987560b76277ac6858999373164867ac0029",
  "source": "pragma solidity ^0.4.18;\r\n\r\ncontract First{\r\n    string name;\r\n    event nameChanged(string newname);\r\n\r\n    function setName(string _name) public{\r\n        name = _name;\r\n        emit nameChanged(_name);\r\n    }\r\n}",
  "sourcePath": "S:\\election\\contracts\\First.sol",
  "compiler": {
    "name": "solc",
    "version": "0.4.24+commit.e67f0147.Emscripten.clang"
  },
  "schemaVersion": "2.0.1",
  "updatedAt": "2018-12-21T04:27:57.157Z"
}